:030000000209757D
:0C097500787FE4F6D8FD75810F020800C1
:1008EF00C280C28175A0381208C9C2821208CBC259
:1008FF0080C28175A0011208C9C2821208CB1208EA
:0C090F00C2C2821208CB1208C2C28222AF
:0D08C200C280C28175A00ED2827F647E00CC
:1008CF00E4FDFCC3ED9FEC9E5015E4FBFA0BBB005F
:0F08DF00010ABA01F8BB7EF50DBD00010C80E4E3
:0108EE0022E7
:0E095900C280C2818FA01208C9C2820208CFDC
:0E096700D280C2818FA01208C9C2820208CFBE
:10091B008B0D8A0E890FAB0DAA0EA90F1209406021
:10092B0013050FE50F7002050E14F9120940FF12A3
:05093B00096780E222C3
:10080000C282C281C280750801750901750A01752D
:100810000B011208EF0208B6E5B0C3940F400302C3
:1008200008BC7FC87E001208CFE5B0C3940F400318
:100830000208B675B0EF20B0047F31807320B10498
:100840007F32806C20B2047F33806520B3047F4107
:10085000805E75B0DF20B0047F34805420B1047F07
:1008600035804D20B2047F36804620B3047F42801D
:100870003F75B0BF20B0047F37803520B1047F388A
:10088000802E20B2047F39802720B3047F4380204C
:1008900075B07F20B0047F30801620B1047F2B809C
:1008A0000F20B2047F2D800830B3030208187F4464
:1008B00012096702081875B00F02081875B00F0208
:0208C000081816
:10094000BB010689828A83E0225002E722BBFE02B5
:09095000E32289828A83E49322E8
:00000001FF
