:03000000020800F3
:0C080000787FE4F6D8FD75813C020847C3
:1009D200204861707079204269727468646179207C
:1009E2000020416E6972756468205E2D5E202121AF
:0209F2002000E3
:10093100180AEFB9EFB9F188EFB9F3CAF2FAEFB9D2
:10094100EFB9F188EFB9F526F3CA182201F401F4E1
:1009510003E803E803E807D001F401F403E803E83E
:0409610003E807D0D0
:1008FA00E4F5A0C282C280C2817F38FE120A0D12BC
:10090A00098B7F067E00120A0D12098B7F0C7E006E
:10091A00120A0D12098B7F017E00120A0D12098B31
:07092A007F807E00020A0D30
:04098B007F047E0067
:10098F00E4FDFCC3ED9FEC9E5015E4FBFA0BBB009E
:0F099F00010ABA01F8BB7EF50DBD00010C80E422
:0109AE002226
:100A0D00C280C281D2828FA07F0A7E0012098FC25E
:020A1D00822233
:100A1F00D280C281D2828FA07F0A7E0012098FC23C
:020A2F00822221
:100966008B3A8A3B893CAB3AAA3BA93C1209F46014
:1009760013053CE53C7002053B14F91209F4FF121D
:050986000A1F80E222BF
:03000B00020A31B5
:0F0A3100C0E0E508F58CE509F58AB287D0E03220
:1009AF00E4FDFCC3ED9FEC9E5018758DFC758B1804
:1009BF00C28FD28E308FFDC28EC28F0DBD00010C43
:0209CF0080E1C5
:0109D1002203
:10088C00758911D2AFD2A91208FA7F807E00120AA4
:10089C000D7BFF7A0979D21209667FC07E00120A9D
:1008AC000D7BFF7A0979E3120966E4FBFAEB25E08C
:1008BC00240AF8E6F50808E6F509E508F58CE509DB
:1008CC00F58AC28DD28CEB25E02422F8E6FE08E6F0
:1008DC00FF1209AFC28CC28DC2877F327E00120913
:0E08EC00AF0BBB00010AEB640C4A70C180998F
:10080C0002088CE493A3F8E493A34003F68001F26E
:10081C0008DFF48029E493A3F85407240CC8C333ED
:10082C00C4540F4420C8834004F456800146F6DFBC
:10083C00E4800B0102040810204080900931E47E12
:10084C00019360BCA3FF543F30E509541FFEE493B1
:10085C00A360010ECF54C025E060A840B8E493A378
:10086C00FAE493A3F8E493A3C8C582C8CAC583CAA3
:10087C00F0A3C8C582C8CAC583CADFE9DEE780BE5B
:010965000091
:1009F400BB010689828A83E0225002E722BBFE0201
:090A0400E32289828A83E4932233
:00000001FF
