:030000000208F8FB
:0C08F800787FE4F6D8FD75810A02080044
:100899002020202020205E5F5E2020202020202094
:1008A900002020202020202020202020202020205F
:0208B90020001D
:07082A001208D47F047E00D8
:10083100E4FDFCC3ED9FEC9E5015E4FBFA0BBB00FD
:0F084100010ABA01F8BB7EF50DBD00010C80E481
:010850002285
:1008D400C280C281D2828FA07F0A7E00120831C2F8
:0208E40082226E
:10087600E4F5A0C282C280C2817F38FE12082A7FB8
:100886000612082A7F0C12082A7F0112082A7F8086
:030896000208D481
:1008E600D280C281D2828FA07F0A7E00120831C2D6
:0208F60082225C
:100851008B088A09890AAB08AA09A90A1208BB6090
:1008610013050AE50A7002050914F91208BBFF1203
:0508710008E680E22210
:100800001208767F807E001208D47BFF7A087999DF
:100810001208517FC07E001208D47BFF7A0879AAA3
:0A0820001208517F887E1302083190
:1008BB00BB010689828A83E0225002E722BBFE023B
:0908CB00E32289828A83E493226E
:00000001FF
