:03000000020ADA17
:0C0ADA00787FE4F6D8FD75811102080059
:1009AF0031203A205361286C6F77290032203A208A
:1009BF0052650033203A20476100410034203A202D
:1009CF004D610035203A2050610036203A204468AE
:1009DF006100420037203A204E690038203A2053F8
:1009EF0061286869676829003900430030002B00CF
:0409FF002D00440083
:100A3000C280C28175A038120A0AC282120A0CC290
:100A400080C28175A001120A0AC282120A0C120A1F
:0C0A500003C282120A0C120A03C28222A6
:0D0A0300C280C28175A00ED2827F647E0089
:100A1000E4FDFCC3ED9FEC9E5015E4FBFA0BBB001C
:0F0A2000010ABA01F8BB7EF50DBD00010C80E4A0
:010A2F0022A4
:040A9A007F017E005A
:0E0A9E00C280C2818FA0120A0AC282020A1010
:0E0ACC00D280C2818FA0120A0AC282020A10D2
:100A5C008B0F8A108911AB0FAA10A911120A816091
:100A6C00130511E5117002051014F9120A81FF1219
:050A7C000ACC80E2221B
:03000B00020ABD29
:0F0ABD00C0E0E508F58CE509F58AB287D0E03294
:100AAC008E088F09E508F58CE509F58AC28DD28C84
:010ABC002217
:070AE600C28CC28DC2872201
:10080000C282C281C280750A01750B01750C017527
:100810000D01120A30758911D2AFD2A975B00FC27D
:1008200087E5B0C3940F40030209A97FC87E001278
:100830000A10E5B0C3940F40030209A375B0EF207E
:10084000B01B7F01120A9E7BFF7A0979AF120A5C06
:100850007FB97EEF120AAC30B0FD02093F20B1191A
:10086000120A9A7BFF7A0979BB120A5C7F887EF1B3
:10087000120AAC30B1FD02093F20B219120A9A7B6C
:10088000FF7A0979C2120A5C7FFA7EF2120AAC3052
:10089000B2FD02093F20B30C120A9A7BFF7A097954
:1008A000C902099D75B0DF20B019120A9A7BFF7A40
:1008B0000979CB120A5C7FCB7EF3120AAC30B0FD13
:1008C00002093F20B118120A9A7BFF7A0979D212E5
:1008D0000A5C7F267EF5120AAC30B1FD806120B241
:1008E00018120A9A7BFF7A0979D9120A5C7F3C7E3A
:1008F000F6120AAC30B2FD804620B30C120A9A7B85
:10090000FF7A0979E102099D75B0BF20B018120A7B
:100910009A7BFF7A0979E3120A5C7F527EF7120A0A
:10092000AC30B0FD801920B11C120A9A7BFF7A0905
:1009300079EA120A5C7FDD7EF7120AAC30B1FD1253
:100940000AE602082120B20B120A9A7BFF7A097983
:10095000F7804A20B30B120A9A7BFF7A0979F98053
:100960003C75B07F20B00B120A9A7BFF7A0979FBA5
:10097000802B20B10B120A9A7BFF7A0979FD801D2A
:1009800020B20B120A9A7BFF7A0979FF800F30B3ED
:1009900003020821120A9A7BFF7A0A7901120A5C83
:0F09A00002082175B00F02082175B00F0208215F
:100A8100BB010689828A83E0225002E722BBFE0273
:090A9100E32289828A83E49322A6
:00000001FF
