:030000000209886A
:0C098800787FE4F6D8FD75810A020800B3
:10087E0020492073776F7265206D792000206C6F90
:10088E0079616C747920746F2000206D652C2000C6
:10089E00206D652C206D7973656C66200020616E6D
:0B08AE0064200020616E6420492000DF
:1008B900E4F5A0C282C280C2817F38FE12094B12C0
:1008C90009157F067E0012094B1209157F0C7E005F
:1008D90012094B1209157F017E0012094B120915E5
:0708E9007F807E0002094B35
:040915007F047E00DD
:10091900E4FDFCC3ED9FEC9E5015E4FBFA0BBB0014
:0F092900010ABA01F8BB7EF50DBD00010C80E498
:01093800229C
:100939007FE87E031209197F017E0012094B7F802F
:020949007E002E
:10094B00C280C281D2828FA07F0A7E00120919C297
:02095B008222F6
:10097600D280C281D2828FA07F0A7E00120919C25C
:020986008222CB
:1008F0008B088A09890AAB08AA09A90A12095D604E
:1009000013050AE50A7002050914F912095DFF12C0
:05091000097680E222DF
:100800001208B91209477BFF7A08797E1208F012A4
:1008100009397BFF7A08798B1208F01209397BFFBE
:100820007A0879981208F07F207E031209191209BC
:10083000477BFF7A08799E1208F07FE87E03120951
:10084000197FC07E0012094B7BFF7A0879AB120832
:10085000F07FC87E001209197FC012094B7BFF7A16
:100860000879B11208F07FD07E071209197F017E46
:0E0870000012094B7FE87E03120919020803EB
:10095D00BB010689828A83E0225002E722BBFE0298
:09096D00E32289828A83E49322CB
:00000001FF
