:030000000209876B
:0C098700787FE4F6D8FD75810C02086E44
:100976004465626F756E636520436F756E7465724C
:010986000070
:1008AE00E4F5A0C282C280C2817F38FE12096412B2
:1008BE0009407F067E001209641209407F0C7E00FB
:1008CE001209641209407F017E0012096412094068
:0708DE007F807E0002096427
:040940007F047E00B2
:10094400E4FDFCC3ED9FEC9E5015E4FBFA0BBB00E9
:0F095400010ABA01F8BB7EF50DBD00010C80E46D
:010963002271
:10096400C280C281D2828FA07F0A7E00120944C253
:020974008222DD
:1008E500120964AE08AF097C007D0A120819EF24CD
:1008F50030FF120909AE08AF097C007D0A120819FC
:04090500ED2430FFAE
:10090900D280C281D2828FA07F0A7E00120944C29E
:02091900822238
:10091B008B0A8A0B890CAB0AAA0BA90C1208006074
:10092B0013050CE50C7002050B14F9120800FF12ED
:05093B00090980E22221
:10086E00E4F508F509D2871208AE7F807E001209E2
:10087E00647BFF7A09797612091B7FC07E0012080D
:10088E00E52087FD7F147E001209442087F30509B9
:10089E00E509700205087FC01208E52087E380FB9A
:10080000BB010689828A83E0225002E722BBFE02F6
:09081000E32289828A83E4932229
:10081900BC000BBE0029EF8DF084FFADF022E4CCC3
:10082900F875F008EF2FFFEE33FEEC33FCEE9DEC8C
:10083900984005FCEE9DFE0FD5F0E9E4CEFD22EDD2
:10084900F8F5F0EE8420D21CFEADF075F008EF2F1C
:10085900FFED33FD4007985006D5F0F222C398FD0D
:050869000FD5F0EA22AA
:00000001FF
