:030000000208C52E
:0C08C500787FE4F6D8FD7581110208D19F
:10088700E4FDFCC3ED9FEC9E5015E4FBFA0BBB00A7
:0F089700010ABA01F8BB7EF50DBD00010C80E42B
:0108A600222F
:1008000075110175900FE4F9E511C454F0440FF52A
:10081000907F407E1F120887E590540FC454F0F576
:10082000100511E511C454F0440FF5907F401208F3
:1008300087E590540FFF05114510FE740829F8A6AE
:080840000609B904C375900F0D
:01084800228D
:10084900E4FF74082FF8E6FEC394405008740C2F97
:10085900F876018024EEC394805008740C2FF87642
:1008690002801674082FF8E6C394C0740C50062F42
:0D087900F8760480042FF876080FBF04C540
:01088600224F
:1008A700E4F9740C29F8E6C454F0440FF5907FA0DE
:0E08B7007E0F12088709B904E975900F80E2E0
:0908D1001208001208490208A7F0
:00000001FF
