:0300000002088E65
:0C088E00787FE4F6D8FD758107020800B1
:10084000E4FDFCC3ED9FEC9E5023E4FBFA90000016
:10085000A3E582B47EFAE583B401F50BBB00010A7F
:0D086000BA03EABBE8E70DBD00010C80D62D
:01086D002268
:10086E00E4FDFCC3ED9FEC9E5015E4FBFA0BBB00C0
:0F087E00010ABA01F8BB7EF50DBD00010C80E444
:01088D002248
:10080000D294C296C295D2977F0A7E00120840C247
:1008100094D296C295C2977F05120840C294C296A0
:10082000D295900000D2977FF47E0112086EC29795
:1008300012086EA3E5826402458370E9C29780C006
:00000001FF
